{
  "contractName": "MCCUserToken",
  "abi": [
    {
      "inputs": [],
      "stateMutability": "nonpayable",
      "type": "constructor"
    },
    {
      "anonymous": false,
      "inputs": [
        {
          "indexed": true,
          "internalType": "address",
          "name": "owner",
          "type": "address"
        },
        {
          "indexed": true,
          "internalType": "address",
          "name": "approved",
          "type": "address"
        },
        {
          "indexed": true,
          "internalType": "uint256",
          "name": "tokenId",
          "type": "uint256"
        }
      ],
      "name": "Approval",
      "type": "event"
    },
    {
      "anonymous": false,
      "inputs": [
        {
          "indexed": true,
          "internalType": "address",
          "name": "owner",
          "type": "address"
        },
        {
          "indexed": true,
          "internalType": "address",
          "name": "operator",
          "type": "address"
        },
        {
          "indexed": false,
          "internalType": "bool",
          "name": "approved",
          "type": "bool"
        }
      ],
      "name": "ApprovalForAll",
      "type": "event"
    },
    {
      "anonymous": false,
      "inputs": [
        {
          "indexed": false,
          "internalType": "uint256",
          "name": "userId",
          "type": "uint256"
        }
      ],
      "name": "NewUser",
      "type": "event"
    },
    {
      "anonymous": false,
      "inputs": [
        {
          "indexed": true,
          "internalType": "address",
          "name": "previousOwner",
          "type": "address"
        },
        {
          "indexed": true,
          "internalType": "address",
          "name": "newOwner",
          "type": "address"
        }
      ],
      "name": "OwnershipTransferred",
      "type": "event"
    },
    {
      "anonymous": false,
      "inputs": [
        {
          "indexed": false,
          "internalType": "uint256",
          "name": "userId",
          "type": "uint256"
        },
        {
          "indexed": false,
          "internalType": "uint256",
          "name": "amount",
          "type": "uint256"
        },
        {
          "indexed": false,
          "internalType": "string",
          "name": "typeSpent",
          "type": "string"
        }
      ],
      "name": "SpentEUR",
      "type": "event"
    },
    {
      "anonymous": false,
      "inputs": [
        {
          "indexed": true,
          "internalType": "address",
          "name": "from",
          "type": "address"
        },
        {
          "indexed": true,
          "internalType": "address",
          "name": "to",
          "type": "address"
        },
        {
          "indexed": true,
          "internalType": "uint256",
          "name": "tokenId",
          "type": "uint256"
        }
      ],
      "name": "Transfer",
      "type": "event"
    },
    {
      "inputs": [
        {
          "internalType": "address",
          "name": "to",
          "type": "address"
        },
        {
          "internalType": "uint256",
          "name": "tokenId",
          "type": "uint256"
        }
      ],
      "name": "approve",
      "outputs": [],
      "stateMutability": "nonpayable",
      "type": "function"
    },
    {
      "inputs": [
        {
          "internalType": "address",
          "name": "owner",
          "type": "address"
        }
      ],
      "name": "balanceOf",
      "outputs": [
        {
          "internalType": "uint256",
          "name": "",
          "type": "uint256"
        }
      ],
      "stateMutability": "view",
      "type": "function",
      "constant": true
    },
    {
      "inputs": [],
      "name": "baseURI",
      "outputs": [
        {
          "internalType": "string",
          "name": "",
          "type": "string"
        }
      ],
      "stateMutability": "view",
      "type": "function",
      "constant": true
    },
    {
      "inputs": [
        {
          "internalType": "uint256",
          "name": "tokenId",
          "type": "uint256"
        }
      ],
      "name": "getApproved",
      "outputs": [
        {
          "internalType": "address",
          "name": "",
          "type": "address"
        }
      ],
      "stateMutability": "view",
      "type": "function",
      "constant": true
    },
    {
      "inputs": [
        {
          "internalType": "address",
          "name": "owner",
          "type": "address"
        },
        {
          "internalType": "address",
          "name": "operator",
          "type": "address"
        }
      ],
      "name": "isApprovedForAll",
      "outputs": [
        {
          "internalType": "bool",
          "name": "",
          "type": "bool"
        }
      ],
      "stateMutability": "view",
      "type": "function",
      "constant": true
    },
    {
      "inputs": [],
      "name": "name",
      "outputs": [
        {
          "internalType": "string",
          "name": "",
          "type": "string"
        }
      ],
      "stateMutability": "view",
      "type": "function",
      "constant": true
    },
    {
      "inputs": [],
      "name": "owner",
      "outputs": [
        {
          "internalType": "address",
          "name": "",
          "type": "address"
        }
      ],
      "stateMutability": "view",
      "type": "function",
      "constant": true
    },
    {
      "inputs": [
        {
          "internalType": "uint256",
          "name": "tokenId",
          "type": "uint256"
        }
      ],
      "name": "ownerOf",
      "outputs": [
        {
          "internalType": "address",
          "name": "",
          "type": "address"
        }
      ],
      "stateMutability": "view",
      "type": "function",
      "constant": true
    },
    {
      "inputs": [],
      "name": "renounceOwnership",
      "outputs": [],
      "stateMutability": "nonpayable",
      "type": "function"
    },
    {
      "inputs": [
        {
          "internalType": "address",
          "name": "from",
          "type": "address"
        },
        {
          "internalType": "address",
          "name": "to",
          "type": "address"
        },
        {
          "internalType": "uint256",
          "name": "tokenId",
          "type": "uint256"
        }
      ],
      "name": "safeTransferFrom",
      "outputs": [],
      "stateMutability": "nonpayable",
      "type": "function"
    },
    {
      "inputs": [
        {
          "internalType": "address",
          "name": "from",
          "type": "address"
        },
        {
          "internalType": "address",
          "name": "to",
          "type": "address"
        },
        {
          "internalType": "uint256",
          "name": "tokenId",
          "type": "uint256"
        },
        {
          "internalType": "bytes",
          "name": "_data",
          "type": "bytes"
        }
      ],
      "name": "safeTransferFrom",
      "outputs": [],
      "stateMutability": "nonpayable",
      "type": "function"
    },
    {
      "inputs": [
        {
          "internalType": "address",
          "name": "operator",
          "type": "address"
        },
        {
          "internalType": "bool",
          "name": "approved",
          "type": "bool"
        }
      ],
      "name": "setApprovalForAll",
      "outputs": [],
      "stateMutability": "nonpayable",
      "type": "function"
    },
    {
      "inputs": [
        {
          "internalType": "bytes4",
          "name": "interfaceId",
          "type": "bytes4"
        }
      ],
      "name": "supportsInterface",
      "outputs": [
        {
          "internalType": "bool",
          "name": "",
          "type": "bool"
        }
      ],
      "stateMutability": "view",
      "type": "function",
      "constant": true
    },
    {
      "inputs": [],
      "name": "symbol",
      "outputs": [
        {
          "internalType": "string",
          "name": "",
          "type": "string"
        }
      ],
      "stateMutability": "view",
      "type": "function",
      "constant": true
    },
    {
      "inputs": [
        {
          "internalType": "uint256",
          "name": "index",
          "type": "uint256"
        }
      ],
      "name": "tokenByIndex",
      "outputs": [
        {
          "internalType": "uint256",
          "name": "",
          "type": "uint256"
        }
      ],
      "stateMutability": "view",
      "type": "function",
      "constant": true
    },
    {
      "inputs": [
        {
          "internalType": "address",
          "name": "owner",
          "type": "address"
        },
        {
          "internalType": "uint256",
          "name": "index",
          "type": "uint256"
        }
      ],
      "name": "tokenOfOwnerByIndex",
      "outputs": [
        {
          "internalType": "uint256",
          "name": "",
          "type": "uint256"
        }
      ],
      "stateMutability": "view",
      "type": "function",
      "constant": true
    },
    {
      "inputs": [
        {
          "internalType": "uint256",
          "name": "tokenId",
          "type": "uint256"
        }
      ],
      "name": "tokenURI",
      "outputs": [
        {
          "internalType": "string",
          "name": "",
          "type": "string"
        }
      ],
      "stateMutability": "view",
      "type": "function",
      "constant": true
    },
    {
      "inputs": [],
      "name": "totalSupply",
      "outputs": [
        {
          "internalType": "uint256",
          "name": "",
          "type": "uint256"
        }
      ],
      "stateMutability": "view",
      "type": "function",
      "constant": true
    },
    {
      "inputs": [
        {
          "internalType": "address",
          "name": "from",
          "type": "address"
        },
        {
          "internalType": "address",
          "name": "to",
          "type": "address"
        },
        {
          "internalType": "uint256",
          "name": "tokenId",
          "type": "uint256"
        }
      ],
      "name": "transferFrom",
      "outputs": [],
      "stateMutability": "nonpayable",
      "type": "function"
    },
    {
      "inputs": [
        {
          "internalType": "address",
          "name": "newOwner",
          "type": "address"
        }
      ],
      "name": "transferOwnership",
      "outputs": [],
      "stateMutability": "nonpayable",
      "type": "function"
    },
    {
      "inputs": [],
      "name": "getUsers",
      "outputs": [
        {
          "components": [
            {
              "internalType": "string",
              "name": "emailHash",
              "type": "string"
            },
            {
              "internalType": "address",
              "name": "account",
              "type": "address"
            },
            {
              "internalType": "uint256",
              "name": "totalSpentEUR",
              "type": "uint256"
            }
          ],
          "internalType": "struct MCCUserToken.User[]",
          "name": "",
          "type": "tuple[]"
        }
      ],
      "stateMutability": "view",
      "type": "function",
      "constant": true
    },
    {
      "inputs": [
        {
          "internalType": "string",
          "name": "emailHash",
          "type": "string"
        },
        {
          "internalType": "address",
          "name": "addr",
          "type": "address"
        }
      ],
      "name": "createUser",
      "outputs": [],
      "stateMutability": "nonpayable",
      "type": "function"
    },
    {
      "inputs": [
        {
          "internalType": "uint256",
          "name": "userId",
          "type": "uint256"
        },
        {
          "internalType": "uint256",
          "name": "amount",
          "type": "uint256"
        },
        {
          "internalType": "string",
          "name": "typeSpent",
          "type": "string"
        }
      ],
      "name": "addSpentEUR",
      "outputs": [],
      "stateMutability": "nonpayable",
      "type": "function"
    },
    {
      "inputs": [
        {
          "internalType": "uint256",
          "name": "userId",
          "type": "uint256"
        }
      ],
      "name": "totalSpentEUR",
      "outputs": [
        {
          "internalType": "uint256",
          "name": "",
          "type": "uint256"
        }
      ],
      "stateMutability": "view",
      "type": "function",
      "constant": true
    }
  ],
  "bytecode": "0x60806040523480156200001157600080fd5b506040518060400160405280600e81526020017f4d4343205573657220546f6b656e0000000000000000000000000000000000008152506040518060400160405280600381526020017f4d55540000000000000000000000000000000000000000000000000000000000815250620000966301ffc9a760e01b620001c960201b60201c565b8160069080519060200190620000ae929190620002a9565b508060079080519060200190620000c7929190620002a9565b50620000e06380ac58cd60e01b620001c960201b60201c565b620000f8635b5e139f60e01b620001c960201b60201c565b6200011063780e9d6360e01b620001c960201b60201c565b5050600062000124620002a160201b60201c565b905080600a60006101000a81548173ffffffffffffffffffffffffffffffffffffffff021916908373ffffffffffffffffffffffffffffffffffffffff1602179055508073ffffffffffffffffffffffffffffffffffffffff16600073ffffffffffffffffffffffffffffffffffffffff167f8be0079c531659141344cd1fd0a4f28419497f9722a3daafe3b4186f6b6457e060405160405180910390a350620003cd565b63ffffffff60e01b817bffffffffffffffffffffffffffffffffffffffffffffffffffffffff1916141562000235576040517f08c379a00000000000000000000000000000000000000000000000000000000081526004016200022c906200039a565b60405180910390fd5b6001600080837bffffffffffffffffffffffffffffffffffffffffffffffffffffffff19167bffffffffffffffffffffffffffffffffffffffffffffffffffffffff1916815260200190815260200160002060006101000a81548160ff02191690831515021790555050565b600033905090565b828054600181600116156101000203166002900490600052602060002090601f016020900481019282601f10620002ec57805160ff19168380011785556200031d565b828001600101855582156200031d579182015b828111156200031c578251825591602001919060010190620002ff565b5b5090506200032c919062000330565b5090565b6200035591905b808211156200035157600081600090555060010162000337565b5090565b90565b600062000367601c83620003bc565b91507f4552433136353a20696e76616c696420696e74657266616365206964000000006000830152602082019050919050565b60006020820190508181036000830152620003b58162000358565b9050919050565b600082825260208201905092915050565b613c9780620003dd6000396000f3fe608060405234801561001057600080fd5b50600436106101575760003560e01c806370a08231116100c3578063b88d4fde1161007c578063b88d4fde146103c6578063c21d8314146103e2578063c87b56dd14610412578063e985e9c514610442578063f2fde38b14610472578063f555ffb41461048e57610157565b806370a0823114610318578063715018a6146103485780638da5cb5b1461035257806395d89b4114610370578063966490071461038e578063a22cb465146103aa57610157565b806323b872dd1161011557806323b872dd146102325780632f745c591461024e57806342842e0e1461027e5780634f6ccce71461029a5780636352211e146102ca5780636c0360eb146102fa57610157565b8062ce8e3e1461015c57806301ffc9a71461017a57806306fdde03146101aa578063081812fc146101c8578063095ea7b3146101f857806318160ddd14610214575b600080fd5b6101646104aa565b604051610171919061363c565b60405180910390f35b610194600480360381019061018f9190612a79565b61060b565b6040516101a1919061365e565b60405180910390f35b6101b2610672565b6040516101bf9190613679565b60405180910390f35b6101e260048036038101906101dd9190612b1f565b610714565b6040516101ef91906135d5565b60405180910390f35b610212600480360381019061020d9190612a3d565b610799565b005b61021c6108b1565b604051610229919061395b565b60405180910390f35b61024c60048036038101906102479190612937565b6108c2565b005b61026860048036038101906102639190612a3d565b610922565b604051610275919061395b565b60405180910390f35b61029860048036038101906102939190612937565b61097d565b005b6102b460048036038101906102af9190612b1f565b61099d565b6040516102c1919061395b565b60405180910390f35b6102e460048036038101906102df9190612b1f565b6109c0565b6040516102f191906135d5565b60405180910390f35b6103026109f7565b60405161030f9190613679565b60405180910390f35b610332600480360381019061032d91906128d2565b610a99565b60405161033f919061395b565b60405180910390f35b610350610b58565b005b61035a610c95565b60405161036791906135d5565b60405180910390f35b610378610cbf565b6040516103859190613679565b60405180910390f35b6103a860048036038101906103a39190612b48565b610d61565b005b6103c460048036038101906103bf9190612a01565b610eb9565b005b6103e060048036038101906103db9190612986565b61103a565b005b6103fc60048036038101906103f79190612b1f565b61109c565b604051610409919061395b565b60405180910390f35b61042c60048036038101906104279190612b1f565b61110d565b6040516104399190613679565b60405180910390f35b61045c600480360381019061045791906128fb565b611290565b604051610469919061365e565b60405180910390f35b61048c600480360381019061048791906128d2565b611324565b005b6104a860048036038101906104a39190612acb565b6114d0565b005b6060600c805480602002602001604051908101604052809291908181526020016000905b828210156106025783829060005260206000209060030201604051806060016040529081600082018054600181600116156101000203166002900480601f01602080910402602001604051908101604052809291908181526020018280546001816001161561010002031660029004801561058a5780601f1061055f5761010080835404028352916020019161058a565b820191906000526020600020905b81548152906001019060200180831161056d57829003601f168201915b505050505081526020016001820160009054906101000a900473ffffffffffffffffffffffffffffffffffffffff1673ffffffffffffffffffffffffffffffffffffffff1673ffffffffffffffffffffffffffffffffffffffff168152602001600282015481525050815260200190600101906104ce565b50505050905090565b6000806000837bffffffffffffffffffffffffffffffffffffffffffffffffffffffff19167bffffffffffffffffffffffffffffffffffffffffffffffffffffffff1916815260200190815260200160002060009054906101000a900460ff169050919050565b606060068054600181600116156101000203166002900480601f01602080910402602001604051908101604052809291908181526020018280546001816001161561010002031660029004801561070a5780601f106106df5761010080835404028352916020019161070a565b820191906000526020600020905b8154815290600101906020018083116106ed57829003601f168201915b5050505050905090565b600061071f82611726565b61075e576040517f08c379a00000000000000000000000000000000000000000000000000000000081526004016107559061385b565b60405180910390fd5b6004600083815260200190815260200160002060009054906101000a900473ffffffffffffffffffffffffffffffffffffffff169050919050565b60006107a4826109c0565b90508073ffffffffffffffffffffffffffffffffffffffff168373ffffffffffffffffffffffffffffffffffffffff161415610815576040517f08c379a000000000000000000000000000000000000000000000000000000000815260040161080c906138fb565b60405180910390fd5b8073ffffffffffffffffffffffffffffffffffffffff16610834611743565b73ffffffffffffffffffffffffffffffffffffffff16148061086357506108628161085d611743565b611290565b5b6108a2576040517f08c379a0000000000000000000000000000000000000000000000000000000008152600401610899906137bb565b60405180910390fd5b6108ac838361174b565b505050565b60006108bd6002611804565b905090565b6108d36108cd611743565b82611819565b610912576040517f08c379a00000000000000000000000000000000000000000000000000000000081526004016109099061391b565b60405180910390fd5b61091d8383836118f7565b505050565b600061097582600160008673ffffffffffffffffffffffffffffffffffffffff1673ffffffffffffffffffffffffffffffffffffffff168152602001908152602001600020611b0e90919063ffffffff16565b905092915050565b6109988383836040518060200160405280600081525061103a565b505050565b6000806109b4836002611b2890919063ffffffff16565b50905080915050919050565b60006109f082604051806060016040528060298152602001613c39602991396002611b579092919063ffffffff16565b9050919050565b606060098054600181600116156101000203166002900480601f016020809104026020016040519081016040528092919081815260200182805460018160011615610100020316600290048015610a8f5780601f10610a6457610100808354040283529160200191610a8f565b820191906000526020600020905b815481529060010190602001808311610a7257829003601f168201915b5050505050905090565b60008073ffffffffffffffffffffffffffffffffffffffff168273ffffffffffffffffffffffffffffffffffffffff161415610b0a576040517f08c379a0000000000000000000000000000000000000000000000000000000008152600401610b01906137db565b60405180910390fd5b610b51600160008473ffffffffffffffffffffffffffffffffffffffff1673ffffffffffffffffffffffffffffffffffffffff168152602001908152602001600020611b76565b9050919050565b610b60611743565b73ffffffffffffffffffffffffffffffffffffffff16610b7e610c95565b73ffffffffffffffffffffffffffffffffffffffff1614610bd4576040517f08c379a0000000000000000000000000000000000000000000000000000000008152600401610bcb9061389b565b60405180910390fd5b600073ffffffffffffffffffffffffffffffffffffffff16600a60009054906101000a900473ffffffffffffffffffffffffffffffffffffffff1673ffffffffffffffffffffffffffffffffffffffff167f8be0079c531659141344cd1fd0a4f28419497f9722a3daafe3b4186f6b6457e060405160405180910390a36000600a60006101000a81548173ffffffffffffffffffffffffffffffffffffffff021916908373ffffffffffffffffffffffffffffffffffffffff160217905550565b6000600a60009054906101000a900473ffffffffffffffffffffffffffffffffffffffff16905090565b606060078054600181600116156101000203166002900480601f016020809104026020016040519081016040528092919081815260200182805460018160011615610100020316600290048015610d575780601f10610d2c57610100808354040283529160200191610d57565b820191906000526020600020905b815481529060010190602001808311610d3a57829003601f168201915b5050505050905090565b610d69611743565b73ffffffffffffffffffffffffffffffffffffffff16610d87610c95565b73ffffffffffffffffffffffffffffffffffffffff1614610ddd576040517f08c379a0000000000000000000000000000000000000000000000000000000008152600401610dd49061389b565b60405180910390fd5b82600c805490508110610e25576040517f08c379a0000000000000000000000000000000000000000000000000000000008152600401610e1c9061387b565b60405180910390fd5b610e5683600c8681548110610e3657fe5b906000526020600020906003020160020154611b8b90919063ffffffff16565b600c8581548110610e6357fe5b9060005260206000209060030201600201819055507f7fad9584f3b13ed227112f8888e8544feed902182eb10941c2f390b1291bd176848484604051610eab93929190613976565b60405180910390a150505050565b610ec1611743565b73ffffffffffffffffffffffffffffffffffffffff168273ffffffffffffffffffffffffffffffffffffffff161415610f2f576040517f08c379a0000000000000000000000000000000000000000000000000000000008152600401610f269061375b565b60405180910390fd5b8060056000610f3c611743565b73ffffffffffffffffffffffffffffffffffffffff1673ffffffffffffffffffffffffffffffffffffffff16815260200190815260200160002060008473ffffffffffffffffffffffffffffffffffffffff1673ffffffffffffffffffffffffffffffffffffffff16815260200190815260200160002060006101000a81548160ff0219169083151502179055508173ffffffffffffffffffffffffffffffffffffffff16610fe9611743565b73ffffffffffffffffffffffffffffffffffffffff167f17307eab39ab6107e8899845ad3d59bd9653f200f220920489ca2b5937696c318360405161102e919061365e565b60405180910390a35050565b61104b611045611743565b83611819565b61108a576040517f08c379a00000000000000000000000000000000000000000000000000000000081526004016110819061391b565b60405180910390fd5b61109684848484611be0565b50505050565b600081600c8054905081106110e6576040517f08c379a00000000000000000000000000000000000000000000000000000000081526004016110dd9061387b565b60405180910390fd5b600c83815481106110f357fe5b906000526020600020906003020160020154915050919050565b606061111882611726565b611157576040517f08c379a000000000000000000000000000000000000000000000000000000000815260040161114e906138db565b60405180910390fd5b6060600860008481526020019081526020016000208054600181600116156101000203166002900480601f0160208091040260200160405190810160405280929190818152602001828054600181600116156101000203166002900480156112005780601f106111d557610100808354040283529160200191611200565b820191906000526020600020905b8154815290600101906020018083116111e357829003601f168201915b5050505050905060606112116109f7565b905060008151141561122757819250505061128b565b60008251111561125c5780826040516020016112449291906135b1565b6040516020818303038152906040529250505061128b565b8061126685611c3c565b6040516020016112779291906135b1565b604051602081830303815290604052925050505b919050565b6000600560008473ffffffffffffffffffffffffffffffffffffffff1673ffffffffffffffffffffffffffffffffffffffff16815260200190815260200160002060008373ffffffffffffffffffffffffffffffffffffffff1673ffffffffffffffffffffffffffffffffffffffff16815260200190815260200160002060009054906101000a900460ff16905092915050565b61132c611743565b73ffffffffffffffffffffffffffffffffffffffff1661134a610c95565b73ffffffffffffffffffffffffffffffffffffffff16146113a0576040517f08c379a00000000000000000000000000000000000000000000000000000000081526004016113979061389b565b60405180910390fd5b600073ffffffffffffffffffffffffffffffffffffffff168173ffffffffffffffffffffffffffffffffffffffff161415611410576040517f08c379a0000000000000000000000000000000000000000000000000000000008152600401611407906136db565b60405180910390fd5b8073ffffffffffffffffffffffffffffffffffffffff16600a60009054906101000a900473ffffffffffffffffffffffffffffffffffffffff1673ffffffffffffffffffffffffffffffffffffffff167f8be0079c531659141344cd1fd0a4f28419497f9722a3daafe3b4186f6b6457e060405160405180910390a380600a60006101000a81548173ffffffffffffffffffffffffffffffffffffffff021916908373ffffffffffffffffffffffffffffffffffffffff16021790555050565b6114d8611743565b73ffffffffffffffffffffffffffffffffffffffff166114f6610c95565b73ffffffffffffffffffffffffffffffffffffffff161461154c576040517f08c379a00000000000000000000000000000000000000000000000000000000081526004016115439061389b565b60405180910390fd5b600b8260405161155c919061359a565b908152602001604051809103902060009054906101000a900460ff16156115b8576040517f08c379a00000000000000000000000000000000000000000000000000000000081526004016115af9061381b565b60405180910390fd5b6001600b836040516115ca919061359a565b908152602001604051809103902060006101000a81548160ff021916908315150217905550600c60405180606001604052808481526020018373ffffffffffffffffffffffffffffffffffffffff16815260200160008152509080600181540180825580915050600190039060005260206000209060030201600090919091909150600082015181600001908051906020019061166892919061271c565b5060208201518160010160006101000a81548173ffffffffffffffffffffffffffffffffffffffff021916908373ffffffffffffffffffffffffffffffffffffffff16021790555060408201518160020155505060006001600c805490500390507f70b8515497d1bc3e1ae7202216a929ffa07f703541985ee77912b7d1390dfbdb816040516116f8919061395b565b60405180910390a161172161170b610c95565b8260405180602001604052806000815250611d83565b505050565b600061173c826002611dde90919063ffffffff16565b9050919050565b600033905090565b816004600083815260200190815260200160002060006101000a81548173ffffffffffffffffffffffffffffffffffffffff021916908373ffffffffffffffffffffffffffffffffffffffff160217905550808273ffffffffffffffffffffffffffffffffffffffff166117be836109c0565b73ffffffffffffffffffffffffffffffffffffffff167f8c5be1e5ebec7d5bd14f71427d1e84f3dd0314c0f7b2291e5b200ac8c7c3b92560405160405180910390a45050565b600061181282600001611df8565b9050919050565b600061182482611726565b611863576040517f08c379a000000000000000000000000000000000000000000000000000000000815260040161185a9061379b565b60405180910390fd5b600061186e836109c0565b90508073ffffffffffffffffffffffffffffffffffffffff168473ffffffffffffffffffffffffffffffffffffffff1614806118dd57508373ffffffffffffffffffffffffffffffffffffffff166118c584610714565b73ffffffffffffffffffffffffffffffffffffffff16145b806118ee57506118ed8185611290565b5b91505092915050565b8273ffffffffffffffffffffffffffffffffffffffff16611917826109c0565b73ffffffffffffffffffffffffffffffffffffffff161461196d576040517f08c379a0000000000000000000000000000000000000000000000000000000008152600401611964906138bb565b60405180910390fd5b600073ffffffffffffffffffffffffffffffffffffffff168273ffffffffffffffffffffffffffffffffffffffff1614156119dd576040517f08c379a00000000000000000000000000000000000000000000000000000000081526004016119d49061373b565b60405180910390fd5b6119e8838383611e09565b6119f360008261174b565b611a4481600160008673ffffffffffffffffffffffffffffffffffffffff1673ffffffffffffffffffffffffffffffffffffffff168152602001908152602001600020611e0e90919063ffffffff16565b50611a9681600160008573ffffffffffffffffffffffffffffffffffffffff1673ffffffffffffffffffffffffffffffffffffffff168152602001908152602001600020611e2890919063ffffffff16565b50611aad81836002611e429092919063ffffffff16565b50808273ffffffffffffffffffffffffffffffffffffffff168473ffffffffffffffffffffffffffffffffffffffff167fddf252ad1be2c89b69c2b068fc378daa952ba7f163c4a11628f55a4df523b3ef60405160405180910390a4505050565b6000611b1d8360000183611e77565b60001c905092915050565b600080600080611b3b8660000186611ee4565b915091508160001c8160001c8090509350935050509250929050565b6000611b6a846000018460001b84611f67565b60001c90509392505050565b6000611b8482600001611ff8565b9050919050565b600080828401905083811015611bd6576040517f08c379a0000000000000000000000000000000000000000000000000000000008152600401611bcd9061371b565b60405180910390fd5b8091505092915050565b611beb8484846118f7565b611bf784848484612009565b611c36576040517f08c379a0000000000000000000000000000000000000000000000000000000008152600401611c2d906136bb565b60405180910390fd5b50505050565b60606000821415611c84576040518060400160405280600181526020017f30000000000000000000000000000000000000000000000000000000000000008152509050611d7e565b600082905060005b60008214611cae578080600101915050600a8281611ca657fe5b049150611c8c565b60608167ffffffffffffffff81118015611cc757600080fd5b506040519080825280601f01601f191660200182016040528015611cfa5781602001600182028036833780820191505090505b50905060006001830390508593505b60008414611d7657600a8481611d1b57fe5b0660300160f81b82828060019003935081518110611d3557fe5b60200101907effffffffffffffffffffffffffffffffffffffffffffffffffffffffffffff1916908160001a905350600a8481611d6e57fe5b049350611d09565b819450505050505b919050565b611d8d838361216d565b611d9a6000848484612009565b611dd9576040517f08c379a0000000000000000000000000000000000000000000000000000000008152600401611dd0906136bb565b60405180910390fd5b505050565b6000611df0836000018360001b6122fb565b905092915050565b600081600001805490509050919050565b505050565b6000611e20836000018360001b61231e565b905092915050565b6000611e3a836000018360001b612406565b905092915050565b6000611e6e846000018460001b8473ffffffffffffffffffffffffffffffffffffffff1660001b612476565b90509392505050565b600081836000018054905011611ec2576040517f08c379a0000000000000000000000000000000000000000000000000000000008152600401611eb99061369b565b60405180910390fd5b826000018281548110611ed157fe5b9060005260206000200154905092915050565b60008082846000018054905011611f30576040517f08c379a0000000000000000000000000000000000000000000000000000000008152600401611f27906137fb565b60405180910390fd5b6000846000018481548110611f4157fe5b906000526020600020906002020190508060000154816001015492509250509250929050565b60008084600101600085815260200190815260200160002054905060008114158390611fc9576040517f08c379a0000000000000000000000000000000000000000000000000000000008152600401611fc09190613679565b60405180910390fd5b50846000016001820381548110611fdc57fe5b9060005260206000209060020201600101549150509392505050565b600081600001805490509050919050565b600061202a8473ffffffffffffffffffffffffffffffffffffffff16612552565b6120375760019050612165565b60606120fe63150b7a0260e01b61204c611743565b88878760405160240161206294939291906135f0565b604051602081830303815290604052907bffffffffffffffffffffffffffffffffffffffffffffffffffffffff19166020820180517bffffffffffffffffffffffffffffffffffffffffffffffffffffffff8381831617835250505050604051806060016040528060328152602001613c07603291398773ffffffffffffffffffffffffffffffffffffffff166125659092919063ffffffff16565b90506000818060200190518101906121169190612aa2565b905063150b7a0260e01b7bffffffffffffffffffffffffffffffffffffffffffffffffffffffff1916817bffffffffffffffffffffffffffffffffffffffffffffffffffffffff191614925050505b949350505050565b600073ffffffffffffffffffffffffffffffffffffffff168273ffffffffffffffffffffffffffffffffffffffff1614156121dd576040517f08c379a00000000000000000000000000000000000000000000000000000000081526004016121d49061383b565b60405180910390fd5b6121e681611726565b15612226576040517f08c379a000000000000000000000000000000000000000000000000000000000815260040161221d906136fb565b60405180910390fd5b61223260008383611e09565b61228381600160008573ffffffffffffffffffffffffffffffffffffffff1673ffffffffffffffffffffffffffffffffffffffff168152602001908152602001600020611e2890919063ffffffff16565b5061229a81836002611e429092919063ffffffff16565b50808273ffffffffffffffffffffffffffffffffffffffff16600073ffffffffffffffffffffffffffffffffffffffff167fddf252ad1be2c89b69c2b068fc378daa952ba7f163c4a11628f55a4df523b3ef60405160405180910390a45050565b600080836001016000848152602001908152602001600020541415905092915050565b600080836001016000848152602001908152602001600020549050600081146123fa576000600182039050600060018660000180549050039050600086600001828154811061236957fe5b906000526020600020015490508087600001848154811061238657fe5b90600052602060002001819055506001830187600101600083815260200190815260200160002081905550866000018054806123be57fe5b60019003818190600052602060002001600090559055866001016000878152602001908152602001600020600090556001945050505050612400565b60009150505b92915050565b6000612412838361257d565b61246b578260000182908060018154018082558091505060019003906000526020600020016000909190919091505582600001805490508360010160008481526020019081526020016000208190555060019050612470565b600090505b92915050565b600080846001016000858152602001908152602001600020549050600081141561251d5784600001604051806040016040528086815260200185815250908060018154018082558091505060019003906000526020600020906002020160009091909190915060008201518160000155602082015181600101555050846000018054905085600101600086815260200190815260200160002081905550600191505061254b565b8285600001600183038154811061253057fe5b90600052602060002090600202016001018190555060009150505b9392505050565b600080823b905060008111915050919050565b606061257484846000856125a0565b90509392505050565b600080836001016000848152602001908152602001600020541415905092915050565b6060824710156125e5576040517f08c379a00000000000000000000000000000000000000000000000000000000081526004016125dc9061377b565b60405180910390fd5b6125ee85612552565b61262d576040517f08c379a00000000000000000000000000000000000000000000000000000000081526004016126249061393b565b60405180910390fd5b600060608673ffffffffffffffffffffffffffffffffffffffff1685876040516126579190613583565b60006040518083038185875af1925050503d8060008114612694576040519150601f19603f3d011682016040523d82523d6000602084013e612699565b606091505b50915091506126a98282866126b5565b92505050949350505050565b606083156126c557829050612715565b6000835111156126d85782518084602001fd5b816040517f08c379a000000000000000000000000000000000000000000000000000000000815260040161270c9190613679565b60405180910390fd5b9392505050565b828054600181600116156101000203166002900490600052602060002090601f016020900481019282601f1061275d57805160ff191683800117855561278b565b8280016001018555821561278b579182015b8281111561278a57825182559160200191906001019061276f565b5b509050612798919061279c565b5090565b6127be91905b808211156127ba5760008160009055506001016127a2565b5090565b90565b6000813590506127d081613baa565b92915050565b6000813590506127e581613bc1565b92915050565b6000813590506127fa81613bd8565b92915050565b60008151905061280f81613bd8565b92915050565b600082601f83011261282657600080fd5b8135612839612834826139e1565b6139b4565b9150808252602083016020830185838301111561285557600080fd5b612860838284613b57565b50505092915050565b600082601f83011261287a57600080fd5b813561288d61288882613a0d565b6139b4565b915080825260208301602083018583830111156128a957600080fd5b6128b4838284613b57565b50505092915050565b6000813590506128cc81613bef565b92915050565b6000602082840312156128e457600080fd5b60006128f2848285016127c1565b91505092915050565b6000806040838503121561290e57600080fd5b600061291c858286016127c1565b925050602061292d858286016127c1565b9150509250929050565b60008060006060848603121561294c57600080fd5b600061295a868287016127c1565b935050602061296b868287016127c1565b925050604061297c868287016128bd565b9150509250925092565b6000806000806080858703121561299c57600080fd5b60006129aa878288016127c1565b94505060206129bb878288016127c1565b93505060406129cc878288016128bd565b925050606085013567ffffffffffffffff8111156129e957600080fd5b6129f587828801612815565b91505092959194509250565b60008060408385031215612a1457600080fd5b6000612a22858286016127c1565b9250506020612a33858286016127d6565b9150509250929050565b60008060408385031215612a5057600080fd5b6000612a5e858286016127c1565b9250506020612a6f858286016128bd565b9150509250929050565b600060208284031215612a8b57600080fd5b6000612a99848285016127eb565b91505092915050565b600060208284031215612ab457600080fd5b6000612ac284828501612800565b91505092915050565b60008060408385031215612ade57600080fd5b600083013567ffffffffffffffff811115612af857600080fd5b612b0485828601612869565b9250506020612b15858286016127c1565b9150509250929050565b600060208284031215612b3157600080fd5b6000612b3f848285016128bd565b91505092915050565b600080600060608486031215612b5d57600080fd5b6000612b6b868287016128bd565b9350506020612b7c868287016128bd565b925050604084013567ffffffffffffffff811115612b9957600080fd5b612ba586828701612869565b9150509250925092565b6000612bbb8383613515565b905092915050565b612bcc81613ae3565b82525050565b612bdb81613ad1565b82525050565b612bea81613ad1565b82525050565b6000612bfb82613a49565b612c058185613a77565b935083602082028501612c1785613a39565b8060005b85811015612c535784840389528151612c348582612baf565b9450612c3f83613a6a565b925060208a01995050600181019050612c1b565b50829750879550505050505092915050565b612c6e81613af5565b82525050565b6000612c7f82613a54565b612c898185613a88565b9350612c99818560208601613b66565b612ca281613b99565b840191505092915050565b6000612cb882613a54565b612cc28185613a99565b9350612cd2818560208601613b66565b80840191505092915050565b6000612ce982613a5f565b612cf38185613aa4565b9350612d03818560208601613b66565b612d0c81613b99565b840191505092915050565b6000612d2282613a5f565b612d2c8185613ab5565b9350612d3c818560208601613b66565b612d4581613b99565b840191505092915050565b6000612d5b82613a5f565b612d658185613ac6565b9350612d75818560208601613b66565b80840191505092915050565b6000612d8e602283613ab5565b91507f456e756d657261626c655365743a20696e646578206f7574206f6620626f756e60008301527f64730000000000000000000000000000000000000000000000000000000000006020830152604082019050919050565b6000612df4603283613ab5565b91507f4552433732313a207472616e7366657220746f206e6f6e20455243373231526560008301527f63656976657220696d706c656d656e74657200000000000000000000000000006020830152604082019050919050565b6000612e5a602683613ab5565b91507f4f776e61626c653a206e6577206f776e657220697320746865207a65726f206160008301527f64647265737300000000000000000000000000000000000000000000000000006020830152604082019050919050565b6000612ec0601c83613ab5565b91507f4552433732313a20746f6b656e20616c7265616479206d696e746564000000006000830152602082019050919050565b6000612f00601b83613ab5565b91507f536166654d6174683a206164646974696f6e206f766572666c6f7700000000006000830152602082019050919050565b6000612f40602483613ab5565b91507f4552433732313a207472616e7366657220746f20746865207a65726f2061646460008301527f72657373000000000000000000000000000000000000000000000000000000006020830152604082019050919050565b6000612fa6601983613ab5565b91507f4552433732313a20617070726f766520746f2063616c6c6572000000000000006000830152602082019050919050565b6000612fe6602683613ab5565b91507f416464726573733a20696e73756666696369656e742062616c616e636520666f60008301527f722063616c6c00000000000000000000000000000000000000000000000000006020830152604082019050919050565b600061304c602c83613ab5565b91507f4552433732313a206f70657261746f7220717565727920666f72206e6f6e657860008301527f697374656e7420746f6b656e00000000000000000000000000000000000000006020830152604082019050919050565b60006130b2603883613ab5565b91507f4552433732313a20617070726f76652063616c6c6572206973206e6f74206f7760008301527f6e6572206e6f7220617070726f76656420666f7220616c6c00000000000000006020830152604082019050919050565b6000613118602a83613ab5565b91507f4552433732313a2062616c616e636520717565727920666f7220746865207a6560008301527f726f2061646472657373000000000000000000000000000000000000000000006020830152604082019050919050565b600061317e602283613ab5565b91507f456e756d657261626c654d61703a20696e646578206f7574206f6620626f756e60008301527f64730000000000000000000000000000000000000000000000000000000000006020830152604082019050919050565b60006131e4601283613ab5565b91507f456d61696c20616c7265616479207573656400000000000000000000000000006000830152602082019050919050565b6000613224602083613ab5565b91507f4552433732313a206d696e7420746f20746865207a65726f20616464726573736000830152602082019050919050565b6000613264602c83613ab5565b91507f4552433732313a20617070726f76656420717565727920666f72206e6f6e657860008301527f697374656e7420746f6b656e00000000000000000000000000000000000000006020830152604082019050919050565b60006132ca600e83613ab5565b91507f55736572206e6f742065786973740000000000000000000000000000000000006000830152602082019050919050565b600061330a602083613ab5565b91507f4f776e61626c653a2063616c6c6572206973206e6f7420746865206f776e65726000830152602082019050919050565b600061334a602983613ab5565b91507f4552433732313a207472616e73666572206f6620746f6b656e2074686174206960008301527f73206e6f74206f776e00000000000000000000000000000000000000000000006020830152604082019050919050565b60006133b0602f83613ab5565b91507f4552433732314d657461646174613a2055524920717565727920666f72206e6f60008301527f6e6578697374656e7420746f6b656e00000000000000000000000000000000006020830152604082019050919050565b6000613416602183613ab5565b91507f4552433732313a20617070726f76616c20746f2063757272656e74206f776e6560008301527f72000000000000000000000000000000000000000000000000000000000000006020830152604082019050919050565b600061347c603183613ab5565b91507f4552433732313a207472616e736665722063616c6c6572206973206e6f74206f60008301527f776e6572206e6f7220617070726f7665640000000000000000000000000000006020830152604082019050919050565b60006134e2601d83613ab5565b91507f416464726573733a2063616c6c20746f206e6f6e2d636f6e74726163740000006000830152602082019050919050565b600060608301600083015184820360008601526135328282612cde565b91505060208301516135476020860182612bd2565b50604083015161355a6040860182613565565b508091505092915050565b61356e81613b4d565b82525050565b61357d81613b4d565b82525050565b600061358f8284612cad565b915081905092915050565b60006135a68284612d50565b915081905092915050565b60006135bd8285612d50565b91506135c98284612d50565b91508190509392505050565b60006020820190506135ea6000830184612be1565b92915050565b60006080820190506136056000830187612bc3565b6136126020830186612be1565b61361f6040830185613574565b81810360608301526136318184612c74565b905095945050505050565b600060208201905081810360008301526136568184612bf0565b905092915050565b60006020820190506136736000830184612c65565b92915050565b600060208201905081810360008301526136938184612d17565b905092915050565b600060208201905081810360008301526136b481612d81565b9050919050565b600060208201905081810360008301526136d481612de7565b9050919050565b600060208201905081810360008301526136f481612e4d565b9050919050565b6000602082019050818103600083015261371481612eb3565b9050919050565b6000602082019050818103600083015261373481612ef3565b9050919050565b6000602082019050818103600083015261375481612f33565b9050919050565b6000602082019050818103600083015261377481612f99565b9050919050565b6000602082019050818103600083015261379481612fd9565b9050919050565b600060208201905081810360008301526137b48161303f565b9050919050565b600060208201905081810360008301526137d4816130a5565b9050919050565b600060208201905081810360008301526137f48161310b565b9050919050565b6000602082019050818103600083015261381481613171565b9050919050565b60006020820190508181036000830152613834816131d7565b9050919050565b6000602082019050818103600083015261385481613217565b9050919050565b6000602082019050818103600083015261387481613257565b9050919050565b60006020820190508181036000830152613894816132bd565b9050919050565b600060208201905081810360008301526138b4816132fd565b9050919050565b600060208201905081810360008301526138d48161333d565b9050919050565b600060208201905081810360008301526138f4816133a3565b9050919050565b6000602082019050818103600083015261391481613409565b9050919050565b600060208201905081810360008301526139348161346f565b9050919050565b60006020820190508181036000830152613954816134d5565b9050919050565b60006020820190506139706000830184613574565b92915050565b600060608201905061398b6000830186613574565b6139986020830185613574565b81810360408301526139aa8184612d17565b9050949350505050565b6000604051905081810181811067ffffffffffffffff821117156139d757600080fd5b8060405250919050565b600067ffffffffffffffff8211156139f857600080fd5b601f19601f8301169050602081019050919050565b600067ffffffffffffffff821115613a2457600080fd5b601f19601f8301169050602081019050919050565b6000819050602082019050919050565b600081519050919050565b600081519050919050565b600081519050919050565b6000602082019050919050565b600082825260208201905092915050565b600082825260208201905092915050565b600081905092915050565b600082825260208201905092915050565b600082825260208201905092915050565b600081905092915050565b6000613adc82613b2d565b9050919050565b6000613aee82613b2d565b9050919050565b60008115159050919050565b60007fffffffff0000000000000000000000000000000000000000000000000000000082169050919050565b600073ffffffffffffffffffffffffffffffffffffffff82169050919050565b6000819050919050565b82818337600083830152505050565b60005b83811015613b84578082015181840152602081019050613b69565b83811115613b93576000848401525b50505050565b6000601f19601f8301169050919050565b613bb381613ad1565b8114613bbe57600080fd5b50565b613bca81613af5565b8114613bd557600080fd5b50565b613be181613b01565b8114613bec57600080fd5b50565b613bf881613b4d565b8114613c0357600080fd5b5056fe4552433732313a207472616e7366657220746f206e6f6e20455243373231526563656976657220696d706c656d656e7465724552433732313a206f776e657220717565727920666f72206e6f6e6578697374656e7420746f6b656ea264697066735822122025c66c04835a07441d71eb46f90ff64a4e90f201d4523c87e9b1debeca1dd7c164736f6c634300060b0033",
  "immutableReferences": {},
  "source": "// SPDX-License-Identifier: MIT\npragma solidity 0.6.11;\npragma experimental ABIEncoderV2;\n\nimport \"@openzeppelin/contracts/token/ERC721/ERC721.sol\";\nimport \"@openzeppelin/contracts/access/Ownable.sol\";\n\ncontract MCCUserToken is ERC721, Ownable {\n    using SafeMath for uint256;\n\n    /**\n     * @dev Emitted when a new User is created with `userId`.\n     */\n    event NewUser(uint256 userId);\n    /**\n     * @dev Emitted when `userId` has spent `amount` EUR for a `typeSpent` purchase.\n     */\n    event SpentEUR(uint256 userId, uint256 amount, string typeSpent);\n\n    struct User {\n        string emailHash; // the email is hashed to preserve anonimity\n        address account; // account that holds FTK\n        uint256 totalSpentEUR; // 3 decimals, 1 EUR = 1000\n    }\n\n    /**\n     * @dev This mapping keeps track of emails already used for users. The hash of the email is used to preserve anonimity.\n     */\n    mapping(string => bool) private emailHashes;\n\n    /**\n     * @dev The list of MCC users.\n     */\n    User[] private users;\n\n    constructor() public ERC721(\"MCC User Token\", \"MUT\") {}\n\n    function getUsers() external view returns (User[] memory){\n        return users;\n    }\n\n    modifier userExists(uint256 userId) {\n        require(userId < users.length, \"User not exist\");\n        _;\n    }\n\n    function createUser(string memory emailHash, address addr) external onlyOwner {\n        require(!emailHashes[emailHash], \"Email already used\");\n        emailHashes[emailHash] = true;\n        users.push(User(emailHash, addr, 0));\n        uint256 userId = users.length - 1;\n        emit NewUser(userId);\n\n        // Avoiding Re-Entrancy attacks\n        // Checks-Effects-Interactions Pattern: Interaction with other contracts should be the very last step in any function.\n        _safeMint(owner(), userId, \"\");\n    }\n\n    function addSpentEUR(\n        uint256 userId,\n        uint256 amount,\n        string memory typeSpent\n    ) external onlyOwner userExists(userId) {\n        users[userId].totalSpentEUR = users[userId].totalSpentEUR.add(amount);\n        emit SpentEUR(userId, amount, typeSpent);\n    }\n\n    function totalSpentEUR(uint256 userId)\n        external\n        view\n        userExists(userId)\n        returns (uint256)\n    {\n        return users[userId].totalSpentEUR;\n    }\n}\n",
  "sourcePath": "/home/oudom/mcc/contracts/MCCUserToken.sol",
  "compiler": {
    "name": "solc",
    "version": "0.6.11+commit.5ef660b1.Emscripten.clang"
  },
  "schemaVersion": "3.3.3",
  "updatedAt": "2021-04-11T14:45:35.274Z",
  "networkType": "ethereum",
  "devdoc": {
    "events": {
      "NewUser(uint256)": {
        "details": "Emitted when a new User is created with `userId`."
      },
      "SpentEUR(uint256,uint256,string)": {
        "details": "Emitted when `userId` has spent `amount` EUR for a `typeSpent` purchase."
      }
    },
    "kind": "dev",
    "methods": {
      "approve(address,uint256)": {
        "details": "See {IERC721-approve}."
      },
      "balanceOf(address)": {
        "details": "See {IERC721-balanceOf}."
      },
      "baseURI()": {
        "details": "Returns the base URI set via {_setBaseURI}. This will be automatically added as a prefix in {tokenURI} to each token's URI, or to the token ID if no specific URI is set for that token ID."
      },
      "getApproved(uint256)": {
        "details": "See {IERC721-getApproved}."
      },
      "isApprovedForAll(address,address)": {
        "details": "See {IERC721-isApprovedForAll}."
      },
      "name()": {
        "details": "See {IERC721Metadata-name}."
      },
      "owner()": {
        "details": "Returns the address of the current owner."
      },
      "ownerOf(uint256)": {
        "details": "See {IERC721-ownerOf}."
      },
      "renounceOwnership()": {
        "details": "Leaves the contract without owner. It will not be possible to call `onlyOwner` functions anymore. Can only be called by the current owner. NOTE: Renouncing ownership will leave the contract without an owner, thereby removing any functionality that is only available to the owner."
      },
      "safeTransferFrom(address,address,uint256)": {
        "details": "See {IERC721-safeTransferFrom}."
      },
      "safeTransferFrom(address,address,uint256,bytes)": {
        "details": "See {IERC721-safeTransferFrom}."
      },
      "setApprovalForAll(address,bool)": {
        "details": "See {IERC721-setApprovalForAll}."
      },
      "supportsInterface(bytes4)": {
        "details": "See {IERC165-supportsInterface}. Time complexity O(1), guaranteed to always use less than 30 000 gas."
      },
      "symbol()": {
        "details": "See {IERC721Metadata-symbol}."
      },
      "tokenByIndex(uint256)": {
        "details": "See {IERC721Enumerable-tokenByIndex}."
      },
      "tokenOfOwnerByIndex(address,uint256)": {
        "details": "See {IERC721Enumerable-tokenOfOwnerByIndex}."
      },
      "tokenURI(uint256)": {
        "details": "See {IERC721Metadata-tokenURI}."
      },
      "totalSupply()": {
        "details": "See {IERC721Enumerable-totalSupply}."
      },
      "transferFrom(address,address,uint256)": {
        "details": "See {IERC721-transferFrom}."
      },
      "transferOwnership(address)": {
        "details": "Transfers ownership of the contract to a new account (`newOwner`). Can only be called by the current owner."
      }
    },
    "stateVariables": {
      "emailHashes": {
        "details": "This mapping keeps track of emails already used for users. The hash of the email is used to preserve anonimity."
      },
      "users": {
        "details": "The list of MCC users."
      }
    },
    "version": 1
  },
  "userdoc": {
    "kind": "user",
    "methods": {},
    "version": 1
  }
}